tcpdump -XX -i en0
tcpdump: verbose output suppressed, use -v[v]... for full protocol decode
listening on en0, link-type EN10MB (Ethernet), snapshot length 524288 bytes
16:04:09.842179 IP 192.168.2.12.35809 > 239.255.255.250.us-cli: UDP, length 542
	0x0000:  0100 5e7f fffa f40e 8338 3ab8 0800 4558  ..^......8:...EX
	0x0010:  023a 88f0 4000 0111 3bbc c0a8 020c efff  .:..@...;.......
	0x0020:  fffa 8be1 1f92 0226 d555 02a3 9b79 016c  .......&.U...y.l
	0x0030:  4d5a 4cb5 a0e6 21fe fea7 9900 2100 1000  MZL...!.....!...
	0x0040:  3101 ede7 8a98 49ca 10f9 4c29 eb16 401a  1.....I...L)..@.
	0x0050:  537d b6e0 9413 01b0 3e35 4e4e 4f54 4946  S}......>5NNOTIF
	0x0060:  5920 2a20 4854 5450 2f31 2e31 0d0a 782d  Y.*.HTTP/1.1..x-
	0x0070:  7479 7065 3a20 6476 720d 0a78 2d66 696c  type:.dvr..x-fil
	0x0080:  7465 723a 2034 6361 3237 6435 322d 6536  ter:.4ca27d52-e6
	0x0090:  3363 2d34 3565 382d 3939 3565 2d63 3130  3c-45e8-995e-c10
	0x00a0:  6335 3263 3739 3135 620d 0a78 2d6c 6173  c52c7915b..x-las
	0x00b0:  7455 7365 7241 6374 6976 6974 793a 2032  tUserActivity:.2
	0x00c0:  2f34 2f32 3032 3320 323a 3339 3a31 3820  /4/2023.2:39:18.
	0x00d0:  504d 0d0a 782d 6c6f 6361 7469 6f6e 3a20  PM..x-location:.
	0x00e0:  6874 7470 3a2f 2f31 3932 2e31 3638 2e32  http://192.168.2
	0x00f0:  2e31 323a 3830 3830 2f64 7672 6673 2f69  .12:8080/dvrfs/i
	0x0100:  6e66 6f2e 786d 6c0d 0a78 2d64 6576 6963  nfo.xml..x-devic
	0x0110:  653a 2062 3335 3063 3963 382d 3863 3236  e:.b350c9c8-8c26
	0x0120:  2d34 6664 332d 3937 3636 2d33 3233 3936  -4fd3-9766-32396
	0x0130:  3964 3966 3362 300d 0a78 2d64 6562 7567  9d9f3b0..x-debug
	0x0140:  3a20 6874 7470 3a2f 2f31 3932 2e31 3638  :.http://192.168
	0x0150:  2e32 2e31 323a 3830 3830 0d0a 0d0a 3c6e  .2.12:8080....<n
	0x0160:  6f64 6520 636f 756e 743d 2731 3034 3737  ode.count='10477
	0x0170:  3327 3e3c 6163 7469 7669 7469 6573 3e3c  3'><activities><
	0x0180:  7363 6865 6476 6572 2064 7665 723d 2733  schedver.dver='3
	0x0190:  2720 7665 723d 2732 3931 3927 2070 656e  '.ver='2919'.pen
	0x01a0:  6463 6170 3d27 5472 7565 2720 2f3e 3c78  dcap='True'./><x
	0x01b0:  2f3e 3c70 3135 6e20 7374 616d 703d 2730  /><p15n.stamp='0
	0x01c0:  3844 3541 3937 3941 4433 4143 3234 4146  8D5A979AD3AC24AF
	0x01d0:  3430 4538 3333 3833 4142 3827 2f3e 3c72  40E83383AB8'/><r
	0x01e0:  6563 6f72 6476 6572 2076 6572 3d27 3631  ecordver.ver='61
	0x01f0:  3330 2720 7665 7269 643d 2735 3434 3634  30'.verid='54464
	0x0200:  3835 3533 2720 7369 7a65 3d27 3936 3230  8553'.size='9620
	0x0210:  3732 3637 3433 3034 2720 6672 6565 3d27  72674304'.free='
	0x0220:  3337 3031 3732 3439 3338 3234 2720 2f3e  370172493824'./>
	0x0230:  3c78 2f3e 3c2f 6163 7469 7669 7469 6573  <x/></activities
	0x0240:  3e3c 2f6e 6f64 653e                      ></node>
16:04:09.842184 ARP, Request who-has 192.168.2.27 tell 192.168.2.37, length 28
	0x0000:  ffff ffff ffff 0c96 e6d8 6c85 0806 0001  ..........l.....
	0x0010:  0800 0604 0001 0c96 e6d8 6c85 c0a8 0225  ..........l....%
	0x0020:  0000 0000 0000 c0a8 021b                 ..........
16:04:09.880571 IP 192.168.2.89.61897 > mynetwork.domain: 51876+ PTR? 12.2.168.192.in-addr.arpa. (43)
	0x0000:  ac3b 77ac a3e8 f84d 8997 27d5 0800 4500  .;w....M..'...E.
	0x0010:  0047 4b8b 0000 4011 a970 c0a8 0259 c0a8  .GK...@..p...Y..
	0x0020:  0201 f1c9 0035 0033 3d7d caa4 0100 0001  .....5.3=}......
	0x0030:  0000 0000 0000 0231 3201 3203 3136 3803  .......12.2.168.
	0x0040:  3139 3207 696e 2d61 6464 7204 6172 7061  192.in-addr.arpa
	0x0050:  0000 0c00 01                             .....
16:04:09.882674 IP mynetwork.domain > 192.168.2.89.61897: 51876 NXDomain* 0/0/0 (43)
	0x0000:  f84d 8997 27d5 ac3b 77ac a3e8 0800 4500  .M..'..;w.....E.
	0x0010:  0047 0000 4000 4011 b4fb c0a8 0201 c0a8  .G..@.@.........
	0x0020:  0259 0035 f1c9 0033 b8f9 caa4 8583 0001  .Y.5...3........
	0x0030:  0000 0000 0000 0231 3201 3203 3136 3803  .......12.2.168.
	0x0040:  3139 3207 696e 2d61 6464 7204 6172 7061  192.in-addr.arpa
	0x0050:  0000 0c00 01                             .....
16:04:09.887181 IP 192.168.2.89.56731 > mynetwork.domain: 13644+ PTR? 27.2.168.192.in-addr.arpa. (43)
	0x0000:  ac3b 77ac a3e8 f84d 8997 27d5 0800 4500  .;w....M..'...E.
	0x0010:  0047 13a7 0000 4011 e154 c0a8 0259 c0a8  .G....@..T...Y..
	0x0020:  0201 dd9b 0035 0033 e202 354c 0100 0001  .....5.3..5L....
	0x0030:  0000 0000 0000 0232 3701 3203 3136 3803  .......27.2.168.
	0x0040:  3139 3207 696e 2d61 6464 7204 6172 7061  192.in-addr.arpa
	0x0050:  0000 0c00 01                             .....
16:04:09.889403 IP mynetwork.domain > 192.168.2.89.56731: 13644 NXDomain* 0/0/0 (43)
	0x0000:  f84d 8997 27d5 ac3b 77ac a3e8 0800 4500  .M..'..;w.....E.
	0x0010:  0047 0000 4000 4011 b4fb c0a8 0201 c0a8  .G..@.@.........
	0x0020:  0259 0035 dd9b 0033 5d7f 354c 8583 0001  .Y.5...3].5L....
	0x0030:  0000 0000 0000 0232 3701 3203 3136 3803  .......27.2.168.
	0x0040:  3139 3207 696e 2d61 6464 7204 6172 7061  192.in-addr.arpa
	0x0050:  0000 0c00 01                             .....
16:04:09.890336 IP 192.168.2.89.58753 > mynetwork.domain: 12745+ PTR? 37.2.168.192.in-addr.arpa. (43)
	0x0000:  ac3b 77ac a3e8 f84d 8997 27d5 0800 4500  .;w....M..'...E.
	0x0010:  0047 3ffd 0000 4011 b4fe c0a8 0259 c0a8  .G?...@......Y..
	0x0020:  0201 e581 0035 0033 dd9e 31c9 0100 0001  .....5.3..1.....
	0x0030:  0000 0000 0000 0233 3701 3203 3136 3803  .......37.2.168.
	0x0040:  3139 3207 696e 2d61 6464 7204 6172 7061  192.in-addr.arpa
	0x0050:  0000 0c00 01                             .....
16:04:09.892161 IP mynetwork.domain > 192.168.2.89.58753: 12745 NXDomain* 0/0/0 (43)
	0x0000:  f84d 8997 27d5 ac3b 77ac a3e8 0800 4500  .M..'..;w.....E.
	0x0010:  0047 0000 4000 4011 b4fb c0a8 0201 c0a8  .G..@.@.........
	0x0020:  0259 0035 e581 0033 591b 31c9 8583 0001  .Y.5...3Y.1.....
	0x0030:  0000 0000 0000 0233 3701 3203 3136 3803  .......37.2.168.
	0x0040:  3139 3207 696e 2d61 6464 7204 6172 7061  192.in-addr.arpa
	0x0050:  0000 0c00 01                             .....
16:04:09.996279 IP 192.168.2.89.56489 > mynetwork.domain: 17310+ PTR? 89.2.168.192.in-addr.arpa. (43)
	0x0000:  ac3b 77ac a3e8 f84d 8997 27d5 0800 4500  .;w....M..'...E.
	0x0010:  0047 d120 0000 4011 23db c0a8 0259 c0a8  .G....@.#....Y..
	0x0020:  0201 dca9 0035 0033 d29c 439e 0100 0001  .....5.3..C.....
	0x0030:  0000 0000 0000 0238 3901 3203 3136 3803  .......89.2.168.
	0x0040:  3139 3207 696e 2d61 6464 7204 6172 7061  192.in-addr.arpa
	0x0050:  0000 0c00 01                             .....
16:04:09.999500 IP mynetwork.domain > 192.168.2.89.56489: 17310 NXDomain* 0/0/0 (43)
	0x0000:  f84d 8997 27d5 ac3b 77ac a3e8 0800 4500  .M..'..;w.....E.
	0x0010:  0047 0000 4000 4011 b4fb c0a8 0201 c0a8  .G..@.@.........
	0x0020:  0259 0035 dca9 0033 4e19 439e 8583 0001  .Y.5...3N.C.....
	0x0030:  0000 0000 0000 0238 3901 3203 3136 3803  .......89.2.168.
	0x0040:  3139 3207 696e 2d61 6464 7204 6172 7061  192.in-addr.arpa
	0x0050:  0000 0c00 01                             .....
16:04:10.001562 IP 192.168.2.89.55186 > mynetwork.domain: 52852+ PTR? 1.2.168.192.in-addr.arpa. (42)
	0x0000:  ac3b 77ac a3e8 f84d 8997 27d5 0800 4500  .;w....M..'...E.
	0x0010:  0046 3249 0000 4011 c2b3 c0a8 0259 c0a8  .F2I..@......Y..
	0x0020:  0201 d792 0035 0032 4726 ce74 0100 0001  .....5.2G&.t....
	0x0030:  0000 0000 0000 0131 0132 0331 3638 0331  .......1.2.168.1
	0x0040:  3932 0769 6e2d 6164 6472 0461 7270 6100  92.in-addr.arpa.
	0x0050:  000c 0001                                ....
16:04:10.004552 IP mynetwork.domain > 192.168.2.89.55186: 52852* 1/0/0 PTR mynetwork. (65)
	0x0000:  f84d 8997 27d5 ac3b 77ac a3e8 0800 4500  .M..'..;w.....E.
	0x0010:  005d 0000 4000 4011 b4e5 c0a8 0201 c0a8  .]..@.@.........
	0x0020:  0259 0035 d792 0049 3027 ce74 8580 0001  .Y.5...I0'.t....
	0x0030:  0001 0000 0000 0131 0132 0331 3638 0331  .......1.2.168.1
	0x0040:  3932 0769 6e2d 6164 6472 0461 7270 6100  92.in-addr.arpa.
	0x0050:  000c 0001 c00c 000c 0001 0000 0000 000b  ................
	0x0060:  096d 796e 6574 776f 726b 00              .mynetwork.
16:04:10.368396 IP 192.168.2.89.mdns > 224.0.0.251.mdns: 0 PTR (QM)? _googlecast._tcp.local. (40)
	0x0000:  0100 5e00 00fb f84d 8997 27d5 0800 4500  ..^....M..'...E.
	0x0010:  0044 54ff 0000 ff11 c2ac c0a8 0259 e000  .DT..........Y..
	0x0020:  00fb 14e9 14e9 0030 e7a6 0000 0000 0001  .......0........
	0x0030:  0000 0000 0000 0b5f 676f 6f67 6c65 6361  ......._googleca
	0x0040:  7374 045f 7463 7005 6c6f 6361 6c00 000c  st._tcp.local...
	0x0050:  0001                                     ..
16:04:10.368651 IP6 renzzis-macbook-pro.local.mdns > ff02::fb.mdns: 0 PTR (QM)? _googlecast._tcp.local. (40)
	0x0000:  3333 0000 00fb f84d 8997 27d5 86dd 600d  33.....M..'...`.
	0x0010:  0900 0030 11ff fe80 0000 0000 0000 1833  ...0...........3
	0x0020:  edbd e57c 9ed1 ff02 0000 0000 0000 0000  ...|............
	0x0030:  0000 0000 00fb 14e9 14e9 0030 02e6 0000  ...........0....
	0x0040:  0000 0001 0000 0000 0000 0b5f 676f 6f67  ..........._goog
	0x0050:  6c65 6361 7374 045f 7463 7005 6c6f 6361  lecast._tcp.loca
	0x0060:  6c00 000c 0001                           l.....
16:04:10.449650 IP 104.18.6.183.https > 192.168.2.89.59603: Flags [P.], seq 3827636105:3827636159, ack 333821341, win 8, options [nop,nop,TS val 3358657651 ecr 1960080563], length 54
	0x0000:  f84d 8997 27d5 ac3b 77ac a3e8 0800 4500  .M..'..;w.....E.
	0x0010:  006a 5188 4000 3806 bf3b 6812 06b7 c0a8  .jQ.@.8..;h.....
	0x0020:  0259 01bb e8d3 e425 1789 13e5 b59d 8018  .Y.....%........
	0x0030:  0008 a730 0000 0101 080a c831 0c73 74d4  ...0.......1.st.
	0x0040:  74b3 1703 0300 31d6 2651 9f9c a1e4 6ddd  t.....1.&Q....m.
	0x0050:  8544 627b 4917 caa5 968f 6252 b818 7ade  .Db{I.....bR..z.
	0x0060:  b443 ab6f 84ae 02c2 ba52 bff7 c3fd 784d  .C.o.....R....xM
	0x0070:  e344 33ac 967e 9b86                      .D3..~..
16:04:10.450094 IP 192.168.2.89.59603 > 104.18.6.183.https: Flags [.], ack 54, win 2048, options [nop,nop,TS val 1960103902 ecr 3358657651], length 0
	0x0000:  ac3b 77ac a3e8 f84d 8997 27d5 0800 4500  .;w....M..'...E.
	0x0010:  0034 0000 4000 4006 08fa c0a8 0259 6812  .4..@.@......Yh.
	0x0020:  06b7 e8d3 01bb 13e5 b59d e425 17bf 8010  ...........%....
	0x0030:  0800 73a4 0000 0101 080a 74d4 cfde c831  ..s.......t....1
	0x0040:  0c73                                     .s
16:04:10.453164 IP 192.168.2.89.59603 > 104.18.6.183.https: Flags [P.], seq 1:59, ack 54, win 2048, options [nop,nop,TS val 1960103905 ecr 3358657651], length 58
	0x0000:  ac3b 77ac a3e8 f84d 8997 27d5 0800 4500  .;w....M..'...E.
	0x0010:  006e 0000 4000 4006 08c0 c0a8 0259 6812  .n..@.@......Yh.
	0x0020:  06b7 e8d3 01bb 13e5 b59d e425 17bf 8018  ...........%....
	0x0030:  0800 3cff 0000 0101 080a 74d4 cfe1 c831  ..<.......t....1
	0x0040:  0c73 1703 0300 35d5 c699 090e cb15 3688  .s....5.......6.
	0x0050:  2ac7 10f1 9fda 4d25 cfb7 09d0 655c 7e72  *.....M%....e\~r
	0x0060:  e40a b836 df0e 841c 9cd6 2819 f90e cd59  ...6......(....Y
	0x0070:  5682 5d49 013e 54d6 bb0e df7e            V.]I.>T....~
16:04:10.460569 IP 104.18.6.183.https > 192.168.2.89.59603: Flags [.], ack 59, win 8, options [nop,nop,TS val 3358657663 ecr 1960103905], length 0
	0x0000:  f84d 8997 27d5 ac3b 77ac a3e8 0800 4500  .M..'..;w.....E.
	0x0010:  0034 5189 4000 3806 bf70 6812 06b7 c0a8  .4Q.@.8..ph.....
	0x0020:  0259 01bb e8d3 e425 17bf 13e5 b5d7 8010  .Y.....%........
	0x0030:  0008 7b53 0000 0101 080a c831 0c7f 74d4  ..{S.......1..t.
	0x0040:  cfe1                                     ..
16:04:10.558680 IP 192.168.2.35.mdns > 224.0.0.251.mdns: 0*- [0q] 1/0/3 PTR Google-Home-Mini-de51dcd92cd474c8971012edb2dad682._googlecast._tcp.local. (383)
	0x0000:  0100 5e00 00fb 4407 0b42 36f9 0800 4500  ..^...D..B6...E.
	0x0010:  019b 0000 4000 ff11 d68a c0a8 0223 e000  ....@........#..
	0x0020:  00fb 14e9 14e9 0187 75f4 0000 8400 0000  ........u.......
	0x0030:  0001 0000 0003 0b5f 676f 6f67 6c65 6361  ......._googleca
	0x0040:  7374 045f 7463 7005 6c6f 6361 6c00 000c  st._tcp.local...
	0x0050:  0001 0000 0078 0034 3147 6f6f 676c 652d  .....x.41Google-
	0x0060:  486f 6d65 2d4d 696e 692d 6465 3531 6463  Home-Mini-de51dc
	0x0070:  6439 3263 6434 3734 6338 3937 3130 3132  d92cd474c8971012
	0x0080:  6564 6232 6461 6436 3832 c00c c02e 0010  edb2dad682......
	0x0090:  8001 0000 1194 00c8 2369 643d 6465 3531  ........#id=de51
	0x00a0:  6463 6439 3263 6434 3734 6338 3937 3130  dcd92cd474c89710
	0x00b0:  3132 6564 6232 6461 6436 3832 2363 643d  12edb2dad682#cd=
	0x00c0:  3442 4531 3441 4130 3441 3544 3142 3141  4BE14AA04A5D1B1A
	0x00d0:  4134 3238 3930 3035 3846 3942 3231 3945  A42890058F9B219E
	0x00e0:  1372 6d3d 3734 4438 3546 4343 3938 3642  .rm=74D85FCC986B
	0x00f0:  3033 3633 0576 653d 3035 136d 643d 476f  0363.ve=05.md=Go
	0x0100:  6f67 6c65 2048 6f6d 6520 4d69 6e69 1269  ogle.Home.Mini.i
	0x0110:  633d 2f73 6574 7570 2f69 636f 6e2e 706e  c=/setup/icon.pn
	0x0120:  6716 666e 3d4c 6976 696e 6720 526f 6f6d  g.fn=Living.Room
	0x0130:  2073 7065 616b 6572 0963 613d 3139 3931  .speaker.ca=1991
	0x0140:  3732 0473 743d 300f 6273 3d46 4138 4643  72.st=0.bs=FA8FC
	0x0150:  4135 4543 3745 4204 6e66 3d31 0372 733d  A5EC7EB.nf=1.rs=
	0x0160:  c02e 0021 8001 0000 0078 002d 0000 0000  ...!.....x.-....
	0x0170:  1f49 2464 6535 3164 6364 392d 3263 6434  .I$de51dcd9-2cd4
	0x0180:  2d37 3463 382d 3937 3130 2d31 3265 6462  -74c8-9710-12edb
	0x0190:  3264 6164 3638 32c0 1dc1 4800 0180 0100  2dad682...H.....
	0x01a0:  0000 7800 04c0 a802 23                   ..x.....#
16:04:10.559308 IP6 fe80::4607:bff:fe42:36f9.mdns > ff02::fb.mdns: 0*- [0q] 1/0/3 PTR Google-Home-Mini-de51dcd92cd474c8971012edb2dad682._googlecast._tcp.local. (395)
	0x0000:  3333 0000 00fb 4407 0b42 36f9 86dd 6000  33....D..B6...`.
	0x0010:  0000 0193 11ff fe80 0000 0000 0000 4607  ..............F.
	0x0020:  0bff fe42 36f9 ff02 0000 0000 0000 0000  ...B6...........
	0x0030:  0000 0000 00fb 14e9 14e9 0193 751f 0000  ............u...
	0x0040:  8400 0000 0001 0000 0003 0b5f 676f 6f67  ..........._goog
	0x0050:  6c65 6361 7374 045f 7463 7005 6c6f 6361  lecast._tcp.loca
	0x0060:  6c00 000c 0001 0000 0078 0034 3147 6f6f  l........x.41Goo
	0x0070:  676c 652d 486f 6d65 2d4d 696e 692d 6465  gle-Home-Mini-de
	0x0080:  3531 6463 6439 3263 6434 3734 6338 3937  51dcd92cd474c897
	0x0090:  3130 3132 6564 6232 6461 6436 3832 c00c  1012edb2dad682..
	0x00a0:  c02e 0010 8001 0000 1194 00c8 2369 643d  ............#id=
	0x00b0:  6465 3531 6463 6439 3263 6434 3734 6338  de51dcd92cd474c8
	0x00c0:  3937 3130 3132 6564 6232 6461 6436 3832  971012edb2dad682
	0x00d0:  2363 643d 3442 4531 3441 4130 3441 3544  #cd=4BE14AA04A5D
	0x00e0:  3142 3141 4134 3238 3930 3035 3846 3942  1B1AA42890058F9B
	0x00f0:  3231 3945 1372 6d3d 3734 4438 3546 4343  219E.rm=74D85FCC
	0x0100:  3938 3642 3033 3633 0576 653d 3035 136d  986B0363.ve=05.m
	0x0110:  643d 476f 6f67 6c65 2048 6f6d 6520 4d69  d=Google.Home.Mi
	0x0120:  6e69 1269 633d 2f73 6574 7570 2f69 636f  ni.ic=/setup/ico
	0x0130:  6e2e 706e 6716 666e 3d4c 6976 696e 6720  n.png.fn=Living.
	0x0140:  526f 6f6d 2073 7065 616b 6572 0963 613d  Room.speaker.ca=
	0x0150:  3139 3931 3732 0473 743d 300f 6273 3d46  199172.st=0.bs=F
	0x0160:  4138 4643 4135 4543 3745 4204 6e66 3d31  A8FCA5EC7EB.nf=1
	0x0170:  0372 733d c02e 0021 8001 0000 0078 002d  .rs=...!.....x.-
	0x0180:  0000 0000 1f49 2464 6535 3164 6364 392d  .....I$de51dcd9-
	0x0190:  3263 6434 2d37 3463 382d 3937 3130 2d31  2cd4-74c8-9710-1
	0x01a0:  3265 6462 3264 6164 3638 32c0 1dc1 4800  2edb2dad682...H.
	0x01b0:  1c80 0100 0000 7800 10fe 8000 0000 0000  ......x.........
	0x01c0:  0046 070b fffe 4236 f9                   .F....B6.

20 packets captured
65 packets received by filter
0 packets dropped by kernel